:020000040800F2
:10000000F8DE002065010008516C0008536C000800
:10001000576C00085B6C00085F6C00080000000073
:10002000000000000000000000000000636C0008F9
:10003000656C000800000000676C0008696C00082F
:100040007F0100087F0100087F0100087F01000890
:100050007F0100087F0100087F0100087F01000880
:100060007F0100087F0100087F0100087F01000870
:100070007F0100087F0100087F0100087F01000860
:100080007F0100087F0100087F0100087F01000850
:10009000856C00087F0100087F0100087F010008CF
:1000A0007F0100087F0100087F0100087F01000830
:1000B0007F0100087F0100087F0100087D6C0008B7
:1000C000756C00087F0100087F0100087F010008AF
:1000D0007F010008956C00087F0100087F0100087F
:1000E0007F0100087F0100087F0100080000000078
:1000F0000000000000000000000000000000000000
:1001000000000000000000007F0100087F010008DF
:100110007F0100087F0100087F0100087F010008BF
:100120007F0100087F0100087F0100087F010008AF
:100130007F0100089D6C00087F0100087F01000816
:100140008D6C00087F0100087F0100087F01000816
:10015000DFF80CD013F0E0FF004800473F6A0008CA
:10016000F8DE00200648804706480047FEE7FEE725
:10017000FEE7FEE7FEE7FEE7FEE7FEE7FEE7FEE757
:10018000B56D00085101000810B50446B4F5E06FE4
:100190000BD0B4F5C06F08D0B4F5A06F05D0B4F59E
:1001A000806F02D0B4F5407F00D103E0622162A0ED
:1001B00006F0D9FC6B4820436B49086010BD2DE95F
:1001C000F0410446002500270F26E07810B1E078C2
:1001D000012800D103E0742157A006F0C4FC607828
:1001E000102800DA03E0752153A006F0BCFCA078CB
:1001F000102800DA03E076214FA006F0B4FCE07886
:1002000048B35948006800F4E060C0F5E0604FEA88
:100210001025C5F1040726FA05F6607800FA07F5FF
:10022000A07800EA060040EA05054FEA05154F48A8
:1002300022788554207800F01F014FF0010000FA69
:1002400001F021784FEA61114FF0E02202EB8101C9
:10025000C1F8000109E0207800F01F01012088406A
:1002600043492278521141F82200BDE8F08170B56F
:1002700004460D46B4F1005F02D0B4F1006F00D126
:1002800003E09D212CA006F06EFC3A48854200D286
:1002900003E09E2128A006F066FC374905EA01002C
:1002A00020433649086070BD70B504460D46102CD9
:1002B00003D0042C01D0022C00D103E0B0211EA0F9
:1002C00006F051FC0DB1012D00D103E0B1211AA0BF
:1002D00006F049FC45B12A48006840EA04004FF0A6
:1002E000E021C1F8100D07E02548006820EA04006D
:1002F0004FF0E021C1F8100D70BD10B50446042C7C
:1003000001D0601D00D103E0C8210BA006F02BFC3A
:10031000042C08D14FF0E020006940F004004FF0B9
:10032000E021086107E04FF0E020006920F00400C0
:100330004FF0E021086110BD2E2E5C53544D333236
:10034000463130785F5374645065726970685F44F9
:1003500072697665725C7372635C6D6973632E6338
:10036000000000000000FA050CED00E000E400E0F1
:1003700080E100E0FFFF0F0080FFFF1F08ED00E0BD
:1003800010ED00E010B50446F948844205D0F94864
:10039000844202D0F848844200D103E0B521F7A09E
:1003A00006F0E1FBF248844208D10121401505F036
:1003B00031FA0021601505F02DFA17E0ED4884426E
:1003C00008D10121001505F025FA0021201505F0BE
:1003D00021FA0BE0E848844208D10121C80305F066
:1003E00019FA00214FF4004005F014FA10BD2DE970
:1003F000F04105460C4600260027DD48854205D021
:10040000DC48854202D0DC48854200D103E0DE2191
:10041000DAA006F0A8FB206818B32068B0F5803F8A
:100420001FD02068B0F5003F1BD02068B0F5403FDA
:1004300017D02068B0F5802F13D02068B0F5A02F1A
:100440000FD02068B0F5C02F0BD02068B0F5E02F9A
:1004500007D02068B0F5002F03D02068B0F5102F2A
:1004600000D103E0DF21C5A006F07DFB207910B1AB
:100470002079012800D103E0E021C0A006F073FB41
:10048000607910B16079012800D103E0E121BBA0BF
:1004900006F069FBA06888B3A068B0F5003F2DD0D6
:1004A000A068B0F5802F29D0A068B0F5C02F25D066
:1004B000A068B0F5002F21D0A068B0F5202F1DD086
:1004C000A068B0F5402F19D0A068B0F5602F15D006
:1004D000A06898B1A068B0F5003F0FD0A068B0F553
:1004E000C02F0BD0A068B0F5002F07D0A068B0F5E2
:1004F000202F03D0A068B0F5402F00D103E0E22107
:100500009EA006F030FBE06818B1E068B0F5006F1F
:1005100000D103E0E32199A006F025FB207C01280F
:1005200003DB207C102800DC03E0E42193A006F02C
:100530001AFB6E689E4806402179206840EA012037
:1005400006436E60AE689B480640D4E9021008433B
:10055000617940EA41000643AE60EE6A26F4700617
:10056000207C401EC0B2074346EA0756EE62BDE853
:10057000F08100210160017141718160C160012140
:100580000174704770B504460D467948844205D021
:100590007848844202D07848844200D104E040F296
:1005A0002D1176A006F0DFFA0DB1012D00D104E087
:1005B0004FF4977171A006F0D6FA25B1A06840F00B
:1005C0000100A06003E0A06820F00100A06070BD01
:1005D00070B504460D466648844202D0664884429F
:1005E00000D104E04FF4A37164A006F0BCFA0DB191
:1005F000012D00D104E040F2471160A006F0B3FAEB
:1006000025B1A06840F48070A06003E0A06820F4E9
:100610008070A06070BD2DE9F04104460D4616467D
:1006200000275348844205D05248844202D05248A1
:10063000844200D104E04FF4B27150A006F093FA66
:100640000EB1012E00D104E040F265114BA006F07E
:100650008AFA4FF61F00054201D105B104E04FF4BC
:10066000B37146A006F07FFAEFB21EB1606838435E
:10067000606002E06068B8436060BDE8F08110B57A
:1006800004463B48844205D03A48844202D03A4866
:10069000844200D104E040F27D1138A006F063FAF4
:1006A000A06840F00800A06010BD70B504460025A9
:1006B0002F48844205D02F48844202D02E488442DD
:1006C00000D104E040F28B112CA006F04CFAA06897
:1006D00010F0080F01D0012500E00025284670BD6C
:1006E00010B504462248844205D02248844202D0F4
:1006F0002148844200D104E040F2A3111FA006F07B
:1007000032FAA06840F00400A06010BD70B5044645
:1007100000251748844205D01648844202D0164866
:10072000844200D104E040F2B11114A006F01BFA9B
:10073000A06810F0040F01D0012500E00025284634
:1007400070BD70B504460D460948844205D009487D
:10075000844202D00848844200D104E040F2CB1128
:1007600006A006F000FA0DB1012D25D12AE0000007
:100770000024014000280140003C01402E2E5C5323
:10078000544D3332463130785F537464506572692A
:1007900070685F4472697665725C7372635C7374CF
:1007A0006D3332663130785F6164632E6300000020
:1007B000FFFEF0FFFDF7F1FF4FF4E671AFF24400EA
:1007C00006F0D1F925B1A06840F4A000A06003E0D4
:1007D000A06820F4A000A06070BD70B5044600259C
:1007E000FF48844205D0FF48844202D0FE4884423C
:1007F00000D105E04FF4F271AFF2800006F0B3F9DA
:10080000A06810F4800F01D0012500E000252846E3
:1008100070BD2DE9F04104460D4600260027F04842
:10082000844205D0EF48844202D0EF48844200D190
:1008300005E040F20121AFF2BC0006F094F9012D71
:1008400002DB082D00DC05E040F20221AFF2D4000B
:1008500006F089F9666826F460466F1E46EA473658
:100860006660BDE8F08170B504460D46DC48844200
:1008700005D0DC48844202D0DB48844200D105E048
:1008800040F21A21AFF20C1006F06DF90DB1012DF6
:1008900000D105E040F21B21AFF2201006F063F911
:1008A00025B1606840F40060606003E0606820F497
:1008B0000060606070BD2DE9F04706460C461746A3
:1008C00098460025A946C648864205D0C5488642B6
:1008D00002D0C548864200D105E040F25121AFF276
:1008E000641006F040F90CB3012C1FD0022C1DD06F
:1008F000032C1BD0042C19D0052C17D0062C15D096
:10090000072C13D0082C11D0092C0FD00A2C0DD095
:100910000B2C0BD00C2C09D00D2C07D00E2C05D095
:100920000F2C03D0102C01D0112C00D105E040F287
:100930005221AFF2B81006F016F9012F02DB102F8A
:1009400000DC05E040F25321AFF2D01006F00BF9C5
:10095000B8F1000F14D0B8F1010F11D0B8F1020FA7
:100960000ED0B8F1030F0BD0B8F1040F08D0B8F1D6
:10097000050F05D0B8F1060F02D0B8F1070F00D16E
:1009800005E04FF41571AFF20C2006F0ECF8092CDD
:1009900013DDF568A4F10A0000EB4001072000FA1E
:1009A00001F925EA0905A4F10A0000EB400008FA64
:1009B00000F945EA0905F5600EE0356904EB4401EC
:1009C000072000FA01F925EA090504EB440008FABA
:1009D00000F945EA09053561072F11DA756B781EB4
:1009E00000EB80011F2000FA01F925EA0905781EB5
:1009F00000EB800004FA00F945EA0905756326E07A
:100A00000D2F11DA356BF81F00EB80011F2000FA63
:100A100001F925EA0905F81F00EB800004FA00F946
:100A200045EA0905356312E0F56AA7F10D0000EB10
:100A300080011F2000FA01F925EA0905A7F10D0040
:100A400000EB800004FA00F945EA0905F562BDE80B
:100A5000F08770B504460D466148844205D0614870
:100A6000844202D06048844200D105E04FF42C71EA
:100A7000AFF2F82006F077F80DB1012D00D105E0B6
:100A800040F2B121AFF20C3006F06DF825B1A0684C
:100A900040F48010A06003E0A06820F48010A06003
:100AA00070BD10B504464E48844205D04D4884427E
:100AB00002D04D48844200D105E040F2C621AFF299
:100AC000443006F050F8E06C80B210BD4748006832
:100AD000704770B504460D464148844205D04148F0
:100AE000844202D04048844200D105E04FF438717E
:100AF000AFF2783006F037F80DB1012D00D105E0E6
:100B000040F2E121AFF28C3006F02DF825B160689B
:100B100040F48060606003E0606820F480606060A2
:100B200070BD70B504460D462D48844205D02D4851
:100B3000844202D02C48844200D105E040F2FA21E0
:100B4000AFF2C83006F00FF80DB1012D00D105E06D
:100B500040F2FB21AFF2DC3006F005F825B1606809
:100B600040F48050606003E0606820F48050606072
:100B700070BD70B505460C4600261948854205D063
:100B80001848854202D01848854200D105E040F25D
:100B90002231AFF2184005F0E6FF4CB3B4F5805FA8
:100BA0002AD0B4F5005F27D0B4F5405F24D0B4F567
:100BB000804F21D0B4F5A04F1ED0B4F5C04F1BD04C
:100BC000B4F5E04F18D0B4F5005F15D0B4F5405F30
:100BD00012D0B4F5804F0FD0B4F5A04F0CD008E080
:100BE0000024014000280140003C01404C24014009
:100BF00002E0B4F5C04F00D105E040F22331AFF27E
:100C0000844005F0B0FFAE6826F4E0462643AE60AF
:100C100070BD70B504460D46FC48844205D0FC48C2
:100C2000844202D0FB48844200D105E040F23A31D0
:100C3000AFF2B84005F097FF0DB1012D00D105E0EE
:100C400040F23B31AFF2CC4005F08DFF25B1A068FA
:100C500040F40040A06003E0A06820F40040A060E1
:100C600070BD70B504460D46E848844205D0E8489A
:100C7000844202D0E748844200D105E040F253317B
:100C8000AFF2085005F06FFF0DB1012D00D105E066
:100C90004FF45571AFF21C5005F065FF25B1A06807
:100CA00040F40210A06003E0A06820F40210A060ED
:100CB00070BD70B504460025D448844205D0D448A0
:100CC000844202D0D348844200D105E04FF45B71E6
:100CD000AFF2585005F047FFA06810F4001F01D094
:100CE000012500E00025284670BD2DE9F0470646A5
:100CF0000C4691461D460027B846BA46C348864270
:100D000005D0C348864202D0C248864200D105E0E1
:100D100040F2A531AFF29C5005F025FF0CB3012C39
:100D20001FD0022C1DD0032C1BD0042C19D0052C55
:100D300017D0062C15D0072C13D0082C11D0092C55
:100D40000FD00A2C0DD00B2C0BD00C2C09D00D2C55
:100D500007D00E2C05D00F2C03D0102C01D0112C55
:100D600000D105E040F2A631AFF2F05005F0FBFEF5
:100D7000B9F1010F03DBB9F1040F00DC05E040F22B
:100D8000A731AFF2086005F0EEFE6DB1012D0BD07A
:100D9000022D09D0032D07D0042D05D0052D03D039
:100DA000062D01D0072D00D105E04FF46A71AFF296
:100DB000346005F0D8FE092C13DDF768A4F10A00B1
:100DC00000EB4001072000FA01F827EA0807A4F128
:100DD0000A0000EB400005FA00F847EA0807F76050
:100DE0000EE0376904EB4401072000FA01F827EA16
:100DF000080704EB440005FA00F847EA08073761E2
:100E0000B76BC7F3015A09F103000AF10101401A57
:100E100000EB80011F2000FA01F827EA080709F11A
:100E200003000AF10101401A00EB800004FA00F807
:100E300047EA0807B763BDE8F0872DE9F0410446AB
:100E40000D46002600277148844205D07048844230
:100E500002D07048844200D105E040F2E531AFF2A3
:100E6000E46005F080FE012D02DB042D00DC05E0CE
:100E700040F2E631AFF2FC6005F075FEA66B26F499
:100E800040166F1E46EA0756A663BDE8F0812DE9BD
:100E9000F04104460D46164600275C48844205D0C2
:100EA0005B48844202D05B48844200D105E040F2B6
:100EB0000541AFF2387005F056FE142D05D0182DFF
:100EC00003D01C2D01D0202D00D105E040F20641B9
:100ED000AFF2587005F047FEB6F5805F00DA05E026
:100EE00040F20741AFF26C7005F03DFE27462F44FB
:100EF0003E60BDE8F08170B504460D4600264348CB
:100F0000844205D04248844202D04248844200D103
:100F100005E04FF48461AFF29C7005F024FE142DBF
:100F200005D0182D03D01C2D01D0202D00D105E0B7
:100F300040F22141AFF2BC7005F015FE264605F1E6
:100F400028000644306880B270BD70B505460C4676
:100F500000262E48854205D02D48854202D02D48D6
:100F6000854200D105E040F23D41AFF2F07005F05E
:100F7000FAFD294884420FD0284884420CD02848E2
:100F8000844209D0B4F5000F06D0B4F5800F03D029
:100F9000B4F5400F00D004B905E040F23E41AFF691
:100FA000240005F0E0FD6E681D48C043064026435E
:100FB0006E6070BD70B504460E46154613488442F7
:100FC00005D01348844202D01248844200D105E083
:100FD00040F25641AFF65C0005F0C5FDB6F5805F06
:100FE00000DA05E040F25741AFF6700005F0BBFDB6
:100FF000B5F5805F00DA05E04FF48B61AFF6840051
:1010000005F0B1FD6662A56270BD000000240140DC
:1010100000280140003C0140000280000002400026
:101020000002C00070B505460C4600268348854284
:1010300005D08348854202D08248854200D105E030
:1010400040F27C41AFF6CC0005F08DFD0CB3012CD5
:101050001FD0022C1DD0032C1BD0042C19D0052C22
:1010600017D0062C15D0072C13D0082C11D0092C22
:101070000FD00A2C0DD00B2C0BD00C2C09D00D2C22
:1010800007D00E2C05D00F2C03D0102C01D0112C22
:1010900000D105E040F27D41AFF6201005F063FD80
:1010A0006E6826F01F0626436E6070BD10B50446BC
:1010B0000CB1012C00D105E040F29141AFF6441093
:1010C00005F051FD3CB16048006840F400005F4904
:1010D000C1F8080406E05C48006820F400005B49A1
:1010E000C1F8080410BD70B505460C4600265348EB
:1010F000854205D05248854202D05248854200D1EF
:1011000005E040F2AE41AFF68C1005F02CFD012C4D
:1011100007D0022C05D0042C03D0082C01D0102CB1
:1011200000D105E040F2AF41AFF6B01005F01BFD75
:101130002868204201D0012600E00026304670BD1C
:1011400070B504460D463D48844205D03C48844273
:1011500002D03C48844200D105E040F2CE41AFF6D7
:10116000E41005F000FD15F0E00F01D105B105E038
:1011700040F2CF41AFF6FC1005F0F5FCE8432060EB
:1011800070BD2DE9F04104460D4600260027B0460B
:101190002A48844205D02A48844202D02948844201
:1011A00000D105E040F2E341AFF6302005F0DBFC72
:1011B000B5F5087F05D0B5F5A07F02D0B5F5906FE5
:1011C00000D105E040F2E441AFF6502005F0CBFC41
:1011D0002F126068E9B200EA01082068384204D0A2
:1011E000B8F1000F01D0012600E000263046BDE82E
:1011F000F08170B504460D4600261048844205D0A3
:101200000F48844202D00F48844200D105E040F2EA
:101210000651AFF6982005F0A6FC4FF61F000542D8
:1012200001D105B105E040F20751AFF6B02005F05D
:101230009AFC2E12F043206070BD00000024014093
:1012400000280140003C01400824014000200140EA
:1012500010B5012004F028FB002004F025FB10BD90
:1012600010B504460CB1012C00D103E0882197A0F1
:1012700005F079FCA248046010BD10B504460CB11D
:10128000012C00D103E0952190A005F06CFC9D4855
:10129000046010BD10B504460CB1012C00D103E070
:1012A000A2218AA005F05FFC9748046010BD70B5CC
:1012B000044600253CB1802C05D0B4F5807F02D0D7
:1012C000B4F5407F00D103E0B72180A005F04BFCCE
:1012D0008E4805884FF67F4105EA010545EA040579
:1012E0008B48A0F82C5C70BD70B5044600257F2C9F
:1012F00000DC03E0CC2175A005F035FC83480588AF
:101300004FF6807105EA010545EA04058048A0F81A
:101310002C5C70BD70B504460D460026042C51D0DF
:10132000082C4FD00C2C4DD0102C4BD0142C49D065
:10133000182C47D01C2C45D0202C43D0242C41D035
:10134000282C3FD0402C3DD0442C3BD0482C39D0C9
:101350004C2C37D0502C35D0542C33D0582C31D085
:101360005C2C2FD0602C2DD0642C2BD0682C29D055
:101370006C2C27D0702C25D0742C23D0782C21D025
:101380007C2C1FD0802C1DD0842C1BD0882C19D0F5
:101390008C2C17D0902C15D0942C13D0982C11D0C5
:1013A0009C2C0FD0A02C0DD0A42C0BD0A82C09D095
:1013B000AC2C07D0B02C05D0B42C03D0B82C01D065
:1013C000BC2C00D103E0E22140A005F0CCFB4F4E45
:1013D0002C3E2644356070BD70B504460025042CB3
:1013E00051D0082C4FD00C2C4DD0102C4BD0142C9D
:1013F00049D0182C47D01C2C45D0202C43D0242C6D
:1014000041D0282C3FD0402C3DD0442C3BD0482C00
:1014100039D04C2C37D0502C35D0542C33D0582CBC
:1014200031D05C2C2FD0602C2DD0642C2BD0682C8C
:1014300029D06C2C27D0702C25D0742C23D0782C5C
:1014400021D07C2C1FD0802C1DD0842C1BD0882C2C
:1014500019D08C2C17D0902C15D0942C13D0982CFC
:1014600011D09C2C0FD0A02C0DD0A42C0BD0A82CCC
:1014700009D0AC2C07D0B02C05D0B42C03D0B82C9C
:1014800001D0BC2C00D103E0F52110A005F06BFBCE
:101490001E4D2C3D2544288870BD1E480068C0B2F2
:1014A00070471D48008840F001001949A1F8340C2C
:1014B00070471A480068C0B270471748008840F06B
:1014C00002001349A1F8340C704700002E2E5C5323
:1014D000544D3332463130785F53746450657269CD
:1014E00070685F4472697665725C7372635C737472
:1014F0006D3332663130785F626B702E63000000AE
:1015000004860D4200860D4288860D422C6C0040F8
:1015100000600040A0860D42346C0040A4860D425D
:1015200010B50446FC48844202D0FC48844200D1F5
:1015300003E07521FAA005F016FBF748844209D1B3
:101540000121480604F08BF900214FF0007004F0EF
:1015500086F908E00121880604F081F900214FF0A6
:10156000806004F07CF910BD2DE9F04104460D4681
:1015700000270026E848844202D0E848844200D18F
:1015800003E09521E6A005F0EEFAA87910B1A8795C
:10159000012800D103E09621E1A005F0E4FAE87902
:1015A00010B1E879012800D103E09721DCA005F013
:1015B000DAFA287A10B1287A012800D103E09821BC
:1015C000D7A005F0D0FA687A10B1687A012800D166
:1015D00003E09921D2A005F0C6FAA87A10B1A87A42
:1015E000012800D103E09A21CDA005F0BCFAE87AE9
:1015F00010B1E87A012800D103E09B21C8A005F0D2
:10160000B2FAA87840B1A878012805D0A8780228B5
:1016100002D0A878032800D103E09C21C0A005F0E7
:10162000A2FAE87840B1E878012805D0E8780228E5
:1016300002D0E878032800D103E09D21B8A005F08E
:1016400092FA28790F2800DC03E09E21B4A005F06F
:101650008AFA6879072800DC03E09F21B0A005F032
:1016600082FA2888012804DB2888B0F5806F00DC26
:1016700003E0A021AAA005F076FA206820F002007D
:101680002060206840F00100206000E0761C606867
:1016900000F00100012803D0A6F57F40FF38F5D106
:1016A000606800F00100012801D000276EE0A879F1
:1016B000012804D1206840F08000206003E0206809
:1016C00020F080002060E879012804D1206840F0F3
:1016D0004000206003E0206820F040002060287A6D
:1016E000012804D1206840F02000206003E0206839
:1016F00020F020002060687A012804D1206840F0A2
:101700001000206003E0206820F010002060A87A1C
:10171000012804D1206840F00800206003E0206820
:1017200020F008002060E87A012804D1206840F009
:101730000400206003E0206820F004002060A87806
:101740008007E97840EA0160297940EA0140697937
:1017500040EA01502988491E0843E061206820F0D2
:1017600001002060002600E0761C606800F00100A7
:10177000012803D1A6F57F40FF38F5D1606800F05D
:101780000100012801D1002700E001273846BDE80B
:10179000F08170B504460025A07A1B2800DC04E027
:1017A00040F21B115EA005F0DEF9E07A10B1E07A9C
:1017B000012800D104E04FF48E7159A005F0D3F94F
:1017C000207B10B1207B012800D104E040F21D11E4
:1017D00053A005F0C8F9208910B12089012800D153
:1017E00004E04FF48F714EA005F0BDF9607B10B19D
:1017F000607B012800D104E040F21F1148A005F0F1
:10180000B2F9A17A012000FA01F55248006840F0CF
:1018100001005149C1F800060846D0F81C0620EA2C
:1018200005004E490860207BB0B94D48006820EAA9
:1018300005004B4908606088E18840EA0141494859
:10184000A27A40F832102088A18840EA0141454838
:10185000A27A00EBC2004160207B012816D14048EB
:10186000006840EA05003E4908606088218840EA37
:1018700001413C48A27A40F83210E088A18840EA51
:1018800001413848A27A00EBC2004160E07A38B9E1
:101890003548006820EA05002F49C1F8040606E033
:1018A0003148006840EA05002B49C1F80406208948
:1018B00030B92E48006820EA05002749C1F814060F
:1018C0002089012806D12948006840EA05002249FC
:1018D000C1F81406607B012806D12048006840EA60
:1018E00005001D49C1F81C061A48006820F00100D7
:1018F0001949C1F8000670BD00218171C1710172E2
:1019000041728172C1728170C17003210171022123
:10191000417101210180704700640040006800406F
:101920002E2E5C53544D3332463130785F537464FD
:101930005065726970685F4472697665725C737233
:10194000635C73746D3332663130785F63616E2E21
:101950006300000000660040006000401C6600401C
:101960000C6600404066004004660040146600407B
:1019700010B50446012C02DB1B2C00DC05E040F214
:101980009711AFF2640005F0EEF8FD48006840F0F2
:101990000100FC49C1F80006F948006843F60E71E1
:1019A00020EA0100F749C1F800060846D0F8000611
:1019B00040EA0420C1F800060846D0F8000620F0EE
:1019C0000100C1F8000610BD70B505460C4616466C
:1019D000ED48854202D0ED48854200D105E04FF444
:1019E000DD71AFF2C40005F0BEF8012C20D0022C4E
:1019F0001ED0042C1CD0082C1AD0102C18D0202C4F
:101A000016D0402C14D0B4F5807F11D0B4F5007FEF
:101A10000ED0B4F5806F0BD0B4F5006F08D0B4F5DC
:101A2000004F05D0B4F5803F02D0B4F5003F00D19F
:101A300005E040F2BB11AFF2181005F094F80EB1BA
:101A4000012E00D105E04FF4DE71AFF22C1005F04D
:101A50008AF81EB168692043686102E06869A043A2
:101A6000686170BD70B505460C460026C6488542C3
:101A700002D0C648854200D105E04FF4EB71AFF2C9
:101A8000601005F070F8207A10B1207A042800D197
:101A900005E040F2D711AFF2781005F064F8607AF3
:101AA00010B1607A022800D105E04FF4EC71AFF27A
:101AB000901005F058F8A07A082800DC05E040F204
:101AC000D911AFF2A41005F04EF8A86800F08060BC
:101AD000B0F1806F01D1002610E0A86800F000602E
:101AE000B0F1006F01D1012608E0A86800F0805035
:101AF000B0F1805F01D1022600E00426042E7ED0E2
:101B000005F5C07000EB0610006800F0010105F556
:101B1000C07000EB06100160207AD0B92068B0F5E3
:101B2000006F00D205E040F2F311AFF20C2005F097
:101B30001AF8607A216840EA415005F5C07101EB5E
:101B400006110968084305F5C07101EB061108602C
:101B50001BE06068B0F1005F00D205E04FF4FC715B
:101B6000AFF2442004F0FFFF207A616840EAC10030
:101B7000617A084305F5C07101EB06110968084355
:101B800005F5C07101EB06110860A07A00F00F00A6
:101B9000A07205F5C07000EB0610406820F00F0140
:101BA00005F5C07000EB0610416005F5C07000EB54
:101BB00006104068A17A084305F5C07101EB0611D3
:101BC0004860A07B0106607B41EA0041207B41EA3E
:101BD0000020E17A084305F5C07101EB0611886029
:101BE000A07C0106607C41EA0041207C41EA0020A3
:101BF000E17B084305F5C07101EB061100E00CE044
:101C0000C86005F5C07000EB0610006840F00101E7
:101C100005F5C07000EB06100160304670BD70B570
:101C200004460E4600255848844202D05748844254
:101C300000D105E040F21D21AFF21C3004F093FF0B
:101C4000022E00DC05E040F21E21AFF22C3004F041
:101C50008AFF26B1012E0FD0022E2BD11BE0A068E7
:101C6000C00745EA5075A06800F002000543A0686F
:101C7000C0F3806005431FE0A06800F4807045EA6F
:101C80009015A06800F4007045EA1025A068C0F324
:101C9000C060054310E0A06800F4803045EA90354C
:101CA000A06800F4003045EA1045A068C0F3007059
:101CB000054301E0002500BF00BF25B1052D04D07C
:101CC000072D06D103E0022505E0002503E00125EC
:101CD00001E0002500BF00BF284670BD70B5044676
:101CE0000D462948844202D02848844200D105E0AC
:101CF0004FF41371AFF2D83004F035FF022D00DC41
:101D000005E040F24D21AFF2E83004F02CFF25B1A0
:101D1000012D07D0022D0FD109E0A06840F080000E
:101D2000A0600AE0A06840F40040A06005E0A06860
:101D300040F40000A06000E000BF00BF70BD70B5BF
:101D400004460D461048844202D01048844200D117
:101D500005E040F26521AFF2384004F004FF0DB118
:101D6000012D00D105E040F26621AFF24C4004F0B5
:101D7000FAFE6DB9E06840F02000E0600CE0000081
:101D800000660040006000400064004000680040C1
:101D9000206940F02000206170BD70B504460D46FA
:101DA0000026F748844202D0F648844200D105E07C
:101DB00040F27D21AFF2984004F0D5FE0DB1012D27
:101DC00000D105E040F27E21AFF2AC4004F0CBFE42
:101DD0001DB9E06800F0030606E0012D03D120697B
:101DE00000F0030600E00026304670BD70B50446E2
:101DF0000D461646E248844202D0E248844200D1B1
:101E000005E040F29921AFF2E84004F0ACFE0DB1DC
:101E1000012D00D105E040F29A21AFF2FC4004F020
:101E2000A2FE04F5D87000EB0510006800F0040075
:101E30003072307A50B904F5D87000EB05100068A4
:101E400040F2FF7101EA5050306009E004F5D870AB
:101E500000EB051000686FF0604101EAD00070608F
:101E600004F5D87000EB0510006800F002007072F5
:101E700004F5D87000EB0510406800F00F00B07258
:101E800004F5D87000EB05104068000AF07404F502
:101E9000D87000EB05108068F07204F5D87000EB84
:101EA00005108068000A307304F5D87000EB051047
:101EB0008068000C707304F5D87000EB0510806822
:101EC000000EB07304F5D87000EB0510C068F07315
:101ED00004F5D87000EB0510C068000A307404F5F2
:101EE000D87000EB0510C068000C707404F5D87051
:101EF00000EB0510C068000EB07429462046FFF7BD
:101F00001EFF70BD70B504460D469D48844202D048
:101F10009C48844200D105E040F2C221AFF200604B
:101F200004F021FE0DB1012D00D105E040F2C321E6
:101F3000AFF2146004F017FE25B1206840F4803041
:101F4000206003E0206820F48030206070BD70B510
:101F5000044600258A48844202D08A48844200D13F
:101F600005E040F2DB21AFF2486004F0FCFD2068A0
:101F700020F0010040F002002060606800F00300E3
:101F8000022800D10125284670BD70B504464FF6E1
:101F9000FF7500267A48844202D07A48844200D1F4
:101FA00005E040F2F521AFF2886004F0DCFD206826
:101FB00020F00200206000E06D1E606800F002006A
:101FC000022801D1002DF7D1606800F0020002283C
:101FD00000D00126304670BD70B505460C4600267F
:101FE0006748854202D06748854200D105E040F24B
:101FF0002331AFF2D46004F0B6FD634884422ED0A2
:10200000624884422BD0801E844228D0401E8442E5
:1020100025D0A4F14450083821D0A4F148501038FC
:102020001DD008301BD0A4F19050C01E17D0A4F1D1
:102030005050103813D0083011D0A4F1A050C01E59
:102040000DD0534884420AD05248844207D05148A8
:10205000FF38844203D0A4F14450123800D105E087
:102060004FF44971AFF2487004F07DFD14F4700F25
:1020700008D0A869C4F31301084201D001262DE05D
:1020800000262BE014F0807F08D06868C4F31301A9
:10209000084201D0012621E000261FE014F0006F65
:1020A00008D0A868C4F31301084201D0012615E046
:1020B000002613E014F0007F08D0E868C4F3130191
:1020C000084201D0012609E0002607E02869C4F390
:1020D0001301084201D0012600E00026304670BD01
:1020E00070B505460C4600262548854202D0254895
:1020F000854200D105E040F28631AFF2DC7004F099
:1021000032FD214884421BD02148844218D0214806
:10211000844215D01F48FF38844211D0A4F14850A2
:1021200008380DD008380BD0A4F15050083807D02B
:10213000083805D0A4F14450083801D00A3800D13D
:1021400005E040F28731AFF6280004F00CFD0E48A0
:10215000844202D10020A86111E0C4F3130614F0F8
:10216000007F01D0EE600AE014F0806F01D02E6194
:1021700005E014F0006F01D0AE6000E06E6070BD4D
:1021800000640040006800407000F0300400F0106F
:102190000000013800010038024600200A4201D048
:1021A000012000E00020704770B504460D4600266F
:1021B000A548844202D0A548844200D105E040F2FF
:1021C000C231AFF6A40004F0CEFC012D20D0022DC8
:1021D0001ED0042D1CD0082D1AD0102D18D0202D63
:1021E00016D0402D14D0B5F5807F11D0B5F5007F05
:1021F0000ED0B5F5806F0BD0B5F5006F08D0B5F5F2
:10220000004F05D0B5F5803F02D0B5F5003F00D1B5
:1022100005E040F2C331AFF6F80004F0A4FC6069B9
:10222000284271D0B5F5807F5CD010DC082D35D008
:1022300006DC012D20D0022D24D0042D77D127E0FB
:10224000102D31D0202D35D0402D70D138E0B5F58E
:10225000004F60D009DCB5F5007F49D0B5F5806F3F
:102260004CD0B5F5006F62D14FE0B5F5803F2DD071
:10227000B5F5003F5BD12FE0A0687549FFF78CFFF3
:10228000064656E0E0680321FFF786FF064650E069
:10229000E0680821FFF780FF06464AE0E068102169
:1022A000FFF77AFF064644E020690321FFF774FF39
:1022B00006463EE020690821FFF76EFF064638E03B
:1022C00020691021FFF768FF064632E060680821A8
:1022D000FFF762FF06462CE060681021FFF75CFF05
:1022E000064626E0A0690121FFF756FF064620E0DA
:1022F000A0690221FFF750FF06461AE0A0690421F9
:10230000FFF74AFF064614E014E0A0697021FFF7CA
:1023100043FF06460DE0A0697721FFF73DFF064623
:1023200060680421FFF738FF064302E0FFE700265C
:1023300000BF00E00026304670BD70B504460D4673
:102340004148844202D04148844200D105E040F235
:102350002941AFF6342004F006FC012D1CD0042DD9
:102360001AD0082D18D0202D16D0402D14D0B5F538
:10237000807F11D0B5F5007F0ED0B5F5806F0BD002
:10238000B5F5006F08D0B5F5004F05D0B5F5803F25
:1023900002D0B5F5003F00D105E040F22A41AFF68A
:1023A000802004F0E0FBB5F5007F3AD00FDC202D53
:1023B00028D006DC012D1CD0042D1DD0082D40D1C5
:1023C0001DE0402D21D0B5F5807F3AD126E0B5F54E
:1023D000004F31D006DCB5F5806F25D0B5F5006F24
:1023E0002FD124E0B5F5803F12D0B5F5003F28D1BC
:1023F00011E01748A06025E00820E06022E01020EE
:10240000E0601FE0082020611CE01020206119E03E
:102410000820606016E01020606013E00420606017
:1024200010E0042060600DE0042060600AE00020FD
:10243000A0610420606005E00020A06104206060CD
:1024400000E000BF00BF70BD0064004000680040B5
:1024500001010100012010498860704701460E48C3
:1024600001600068704710B502460B46002100BFAE
:1024700004E052F82100084C2060491C9942F8D32E
:102480000548006810BD044800687047024908719B
:1024900070470148007970470030024010B504468B
:1024A000FF4884422AD0FE481430844226D0FC489B
:1024B0002830844222D0FA483C3084421ED0F8486A
:1024C000503084421AD0F6486430844216D0F44822
:1024D0007830844212D0F34884420FD0F14814304F
:1024E00084420BD0EF482830844207D0ED483C307E
:1024F000844203D0EB485030844200D103E06E2187
:10250000E9A004F030FB20684FF6FE71084020601F
:10251000002020606060A060E060E148844208D153
:10252000DF480838406840F00F00DD49083948604E
:1025300088E0DB481430844208D1D9480838406824
:1025400040F0F000D649083948607BE0D448283094
:10255000844208D1D2480838406840F47060D049BD
:10256000083948606EE0CE483C30844208D1CC48FF
:102570000838406840F47040C9490839486061E053
:10258000C7485030844208D1C5480838406840F4F4
:102590007020C3490839486054E0C148643084421F
:1025A00008D1BF480838406840F47000BC49083979
:1025B000486047E0BA487830844208D1B8480838C3
:1025C000406840F07060B649083948603AE0B54864
:1025D000844208D1A0F10400006840F00F00BF4918
:1025E000C1F804042EE0AF481430844207D1BC483F
:1025F000006840F0F000B949C1F8040422E0A9489D
:102600002830844207D1B648006840F47060B3496E
:10261000C1F8040416E0A3483C30844207D1B04816
:10262000006840F47040AD49C1F804040AE09D48D8
:102630005030844206D1AA48006840F47020A7496F
:10264000C1F8040410BD70B505460C460026944838
:1026500085422AD092481430854226D090482830AE
:10266000854222D08E483C3085421ED08C48503066
:1026700085421AD08A486430854216D0884878301E
:10268000854212D0874885420FD086481430854253
:102690000BD084482830854207D082483C308542A0
:1026A00003D080485030854200D103E0CE217EA087
:1026B00004F059FAA068102801D0A06800B903E01E
:1026C000CF2179A004F04FFAE06820B1E068B0F5BE
:1026D000803F00D203E0D02173A004F044FA2069C7
:1026E000402801D0206900B903E0D1216EA004F098
:1026F0003AFA6069802801D0606900B903E0D2210C
:1027000069A004F030FAA06938B1A069B0F5807F03
:1027100003D0A069B0F5007F00D103E0D32162A00F
:1027200004F021FAE06938B1E069B0F5806F03D0B8
:10273000E069B0F5006F00D103E0D4215AA004F0A5
:1027400012FA206A202801D0206A00B903E0D521BE
:1027500055A004F008FA606AB0F5405F09D0606ADD
:10276000B0F5005F05D0606AB0F5805F01D0606AA7
:1027700000B903E0D6214CA004F0F5F9A06AB0F549
:10278000804F01D0A06A00B903E0D72146A004F031
:10279000EAF92E6847F6F0708643216AA06808437C
:1027A0002169084361690843A1690843E169084355
:1027B000616A0843A16A084306432E60E0686860C6
:1027C0002068A8606068E86070BD00210160416019
:1027D0008160C160016141618161C16101624162E9
:1027E0008162704770B504460D462D4884422AD058
:1027F0002B481430844226D029482830844222D0E5
:1028000027483C3084421ED02548503084421AD09C
:1028100023486430844216D021487830844212D054
:10282000204884420FD01F48143084420BD01D48EA
:102830002830844207D01B483C30844203D01948DA
:102840005030844200D104E04FF4947116A004F09B
:102850008AF90DB1012D00D104E040F2291112A036
:1028600004F081F925B1206840F00100206004E007
:1028700020684FF6FE710840206070BD70B50446B8
:102880000D461646064884424CD005481430844212
:1028900048D003482830844244D001483C3021E0ED
:1028A00008000240080402402E2E5C53544D33327F
:1028B000463130785F5374645065726970685F4464
:1028C00072697665725C7372635C73746D333266C1
:1028D0003130785F646D612E6300000000000240BB
:1028E0000404024084421DD0FF4884421AD0FE48AE
:1028F0001430844216D0FC482830844212D0FB4861
:1029000084420FD0F948143084420BD0F748283065
:10291000844207D0F5483C30844203D0F34850301D
:10292000844200D105E04FF4A471AFF2840004F0BA
:102930001AF935F00E0001D105B105E040F2491158
:10294000AFF29C0004F00FF90EB1012E00D105E0AA
:102950004FF4A571AFF2B00004F005F91EB1206884
:102960002843206002E02068A843206070BD70B555
:1029700004460D46DC485038844229D0DA483C38B9
:10298000844225D0D8482838844221D0D6481438EB
:1029900084421DD0D44884421AD0D3481430844293
:1029A00016D0D1482830844212D0D04884420FD06B
:1029B000CE48143084420BD0CC482830844207D013
:1029C000CA483C30844203D0C8485030844200D1C9
:1029D00005E040F26311AFF2301004F0C4F8656016
:1029E00070BD10B50446C0485038844229D0BE4856
:1029F0003C38844225D0BC482838844221D0BA488B
:102A0000143884421DD0B84884421AD0B6481430D5
:102A1000844216D0B4482830844212D0B34884424D
:102A20000FD0B248143084420BD0B04828308442D2
:102A300007D0AE483C30844203D0AC48503084428A
:102A400000D105E040F27511AFF2A41004F08BF84C
:102A5000606880B210BD70B5044600250026012CC8
:102A60007ED0022C7CD0042C7AD0082C7ED0102C66
:102A70007CD0202C7AD0402C78D0802C76D0B4F525
:102A8000807F73D0B4F5007F70D0B4F5806F6DD0C7
:102A9000B4F5006F6AD0B4F5805F67D0B4F5005F1D
:102AA00064D0B4F5804F61D0B4F5004F5ED0B4F57A
:102AB000803F5BD0B4F5003F58D0B4F5802F55D09F
:102AC000B4F5002F52D0B4F5801F4FD0B4F5001FDD
:102AD0004CD0B4F5800F49D0B4F5000F46D0B4F116
:102AE000807F43D0B4F1007F40D0B4F1806F3DD0FF
:102AF000B4F1006F3AD07E48844237D0A4F18050C0
:102B0000801E33D0801E31D0001F2FD008382DD02A
:102B100010382BD0203829D0403827D07448FF30C7
:102B2000844223D07348844220D0734884421DD00D
:102B3000724884421AD0B4F1102F17D04FEAF03007
:102B4000844213D06E48844210D06E4884420DD027
:102B50006D4884420AD06D48844207D06C4800E03A
:102B600004E0844202D06B48844200D105E040F288
:102B7000B511AFF2CC2003F0F6FF14F0805F02D065
:102B80006548066802E0584858380668264201D071
:102B9000012500E00025284670BD10B5044614F05C
:102BA000704F02D05D48044201D104B105E04FF4FA
:102BB0000371AFF20C3003F0D6FF14F0805F02D047
:102BC0005748046002E048485838446010BD70B56A
:102BD000044600250026012C7ED0022C7CD0042C3B
:102BE0007AD0082C7ED0102C7CD0202C7AD0402C8F
:102BF00078D0802C76D0B4F5807F73D0B4F5007F88
:102C000070D0B4F5806F6DD0B4F5006F6AD0B4F5B4
:102C1000805F67D0B4F5005F64D0B4F5804F61D0B9
:102C2000B4F5004F5ED0B4F5803F5BD0B4F5003F03
:102C300058D0B4F5802F55D0B4F5002F52D0B4F54C
:102C4000801F4FD0B4F5001F4CD0B4F5800F49D091
:102C5000B4F5000F46D0B4F1807F43D0B4F1007FCB
:102C600040D0B4F1806F3DD0B4F1006F3AD020482D
:102C7000844237D0A4F18050801E33D0801E31D0E2
:102C8000001F2FD008382DD010382BD0203829D055
:102C9000403827D01648FF30844223D0154884425C
:102CA00020D0154884421DD0144884421AD0B4F173
:102CB000102F17D04FEAF030844213D010488442CE
:102CC00010D0104884420DD00F4884420AD00F48DB
:102CD000844207D00E4800E004E0844202D00D4850
:102CE00084421FD124E00000580002400804024042
:102CF0000100001000020010000400100008001085
:102D000000400010008000100000011000000210C0
:102D10000000041000000810000402400000F0EF62
:102D20000404024040F25621AFF2844003F01BFF3E
:102D300014F0805F02D01248066801E0114806686E
:102D4000264201D0012500E00025284670BD10B5BF
:102D5000044614F0704F02D00B48044201D104B174
:102D600005E04FF42B71AFF2C04003F0FCFE14F00D
:102D7000805F02D00548046001E00248446010BD55
:102D800000040240000002400000F0EF0404024092
:102D900070B5044600251CB1012C01D0022C00D1D5
:102DA00004E04FF48171F4A003F0DDFEFF480568F4
:102DB00005F038052543056070BD10B50446082CA4
:102DC00000D004B904E040F21B11EBA003F0CBFEED
:102DD000F648006820F00800F449086008460068DA
:102DE0002043086010BD10B50446102C00D004B973
:102DF00004E04FF49771E0A003F0B5FEEB480068E3
:102E000020F01000E9490860084600682043086087
:102E100010BDE748E5494860E64848607047E44827
:102E2000E2494860E34848607047E048006940F084
:102E30008000DE4908617047DC48006940F080008E
:102E4000DA49086170470420D849C96801F00101D6
:102E5000012901D101200EE0D449C96811F0040F05
:102E600001D0022007E0D149C96811F0100F01D04C
:102E7000032000E00420704700B502460423FFF75A
:102E8000E2FF034603E0FFF7DEFF0346521E012B7D
:102E900001D1002AF7D102B90523184600BD70B54B
:102EA00004460425B4F1006F03D3C348844200D222
:102EB00004E04FF4D371B0A003F055FE4FF430207E
:102EC000FFF7DAFF0546042D17D1B848006940F036
:102ED0000200B649086108464461006940F04000BC
:102EE00008614FF43020FFF7C7FF0546AF4800697F
:102EF00041F6FD710840AD490861284670BD10B526
:102F000004244FF43020FFF7B7FF0446042C16D1F9
:102F1000A648006940F00400A44908610846006919
:102F200040F0400008614FF43020FFF7A5FF044651
:102F30009E48006941F6FB7108409C4908612046A3
:102F400010BD00B502460423FFF77DFF034603E0F2
:102F5000FFF779FF0346521E012B01D1002AF7D15A
:102F600002B90523184600BD10B504244FF43020E3
:102F7000FFF7E7FF0446042C16D18C48006940F0A7
:102F800004008A4908610846006940F04000086171
:102F90004FF43020FFF7D5FF04468448006941F61E
:102FA000FB71084081490861204610BD00207F491F
:102FB000C96911F0020F01D0012000E00020704724
:102FC00030B5A5250424FFF7F1FF00B100254FF42B
:102FD0003020FFF751FF0446042C3BD1744873495D
:102FE0008860744888600846006940F020000861E5
:102FF0000846006940F0400008614FF43020FFF7B8
:103000003BFF0446042C1CD16848006941F6DF717F
:103010000840664908610846006940F010000861F0
:10302000664805804FF40050FFF726FF0446052C44
:1030300010D05E48006941F6EF7108405B490861B5
:1030400008E0052C06D05948006941F6EF710840A8
:1030500056490861204630BD2DE9F04104460D4631
:1030600004260027B4F1006F03D35348844200D2F2
:1030700004E040F2AE2140A003F075FD4FF4005093
:10308000FFF7FAFE0646042E22D14848006940F0B8
:103090000100464908612580F002FFF7EDFE064673
:1030A000042E0ED1A71C280C3880F002FFF7E4FE96
:1030B00006463E48006941F6FE7108403B490861FA
:1030C00006E03A48006941F6FE7108403749086158
:1030D0003046BDE8F08170B504460D460426B4F1D3
:1030E000006F03D33448844200D204E040F25D31E3
:1030F00021A003F038FD4FF40050FFF7BDFE064657
:10310000042E11D12948006940F0010027490861C7
:103110002580F002FFF7B0FE06462448006941F61C
:10312000FE71084021490861304670BD70B5044603
:103130000E4604252148001D844202D0801C844292
:1031400000D104E04FF469710BA003F00CFD4FF4C3
:103150000050FFF791FE0546042D3DD11448134958
:103160008860144888600846006940F010000861D3
:103170002680E80224E000002E2E5C53544D3332AA
:10318000463130785F5374645065726970685F448B
:1031900072697665725C7372635C73746D333266E8
:1031A0003130785F666C6173682E630000200240E6
:1031B00023016745AB89EFCDFFFF0F0800F8FF1F24
:1031C000FFF75AFE0546052D06D0CF48006941F6A7
:1031D000EF710840CC490861284670BD2DE9F047E1
:1031E00004464FF6FF763746B046B146042504B193
:1031F00005E040F2D531AFF2800003F0B4FCE443C7
:10320000E6B2C4F30727C4F307484FEA14694FF442
:103210000050FFF731FE0546042D3ED1BB48BA49A8
:103220008860BB4888600846006940F0100008616B
:10323000FF2E06D0B74806804FF40050FFF71CFE63
:103240000546042D08D1FF2F06D0B34807804FF460
:103250000050FFF711FE0546042D09D1B8F1FF0F0C
:1032600006D0AE48A0F80C88E802FFF705FE054638
:10327000042D09D1B9F1FF0F06D0A848A0F80E9887
:10328000E802FFF7F9FD0546052D06D09E480069C6
:1032900041F6EF7108409C4908612846BDE8F08777
:1032A00070B5054604240DB1012D00D105E040F2B2
:1032B0001C41AFF23C1003F056FC4FF43020FFF7F6
:1032C000DBFD0446042C41D190488F49886090482A
:1032D00088600846006940F02000086108460069DF
:1032E00040F0400008614FF43020FFF7C5FD044670
:1032F000042C22D18448006941F6DF7108408249DC
:1033000008610846006940F0100008611DB1002006
:103310008349088002E0A520814908804FF43020CD
:10332000FFF7AAFD0446052C10D07748006941F646
:10333000EF7108407449086108E0052C06D0724816
:10334000006941F6DF7108406F490861204670BD91
:103350002DE9F04104460D4616460427012C00D005
:1033600004B905E040F26241AFF2F41003F0FBFB58
:10337000022D00D005B905E040F26341AFF208200C
:1033800003F0F1FB042E00D006B905E040F26441E1
:10339000AFF21C2003F0E7FB5C485B4988605C48A7
:1033A00088604FF40050FFF767FD0746042F19D1DE
:1033B0005548006940F010005349086146F0F80094
:1033C00028432043574908804FF40050FFF754FD2D
:1033D0000746052F06D04C48006941F6EF710840BA
:1033E000494908613846BDE8F0814748C06980080E
:1033F00070474548006A704700204349096811F04A
:10340000200F01D0012000E00020704770B5044675
:103410000D4634F4A05001D104B105E040F22C5126
:10342000AFF2AC2003F09FFB0DB1012D00D105E000
:1034300040F22D51AFF2C02003F095FB2DB1324880
:10344000006920433049086104E02F480069A04327
:103450002D49086170BD70B504460025012C0FD0C0
:10346000202C0DD0042C0BD0102C09D0012C07D00F
:10347000202C05D0042C03D0102C01D0012C00D11D
:1034800005E040F27951AFF2103003F06CFB012CF3
:1034900008D11D48C06910F0010F01D0012508E0D6
:1034A000002506E01848C068204201D0012500E050
:1034B0000025284670BD10B5044634F0350001D112
:1034C00004B105E040F2B551AFF2543003F04BFBCC
:1034D0000D48C46010BD04200B49C96801F001010A
:1034E000012901D101200EE00749C96811F0040F3C
:1034F00001D0022007E00449C96811F0100F01D083
:10350000032000E0042070470020024023016745AB
:10351000AB89EFCD08F8FF1F0AF8FF1F00F0FF1F6F
:1035200000F8FF1F02F8FF1F10B50446FD48844253
:1035300011D0FD4884420ED0FC4884420BD0FC4898
:10354000844208D0FB48844205D0FB48844202D024
:10355000FA48844200D103E06E21F9A003F003FB96
:10356000F048844208D10121042002F053F90021DF
:10357000042002F04FF946E0EB48844208D10121D3
:10358000082002F047F90021082002F043F93AE050
:10359000E648844208D10121102002F03BF90021C5
:1035A000102002F037F92EE0E148844208D10121D1
:1035B000202002F02FF90021202002F02BF922E038
:1035C000DC48844208D10121402002F023F9002187
:1035D000402002F01FF916E0D748844208D10121AB
:1035E000802002F017F90021802002F013F90AE090
:1035F000D248844207D10121801502F00BF9002145
:10360000A01502F007F910BD10B50121084602F01F
:1036100001F90021012002F0FDF810BD2DE9F05F55
:1036200005460C464FF00009CA4600260027B04662
:10363000B346BC48854211D0BB4885420ED0BB483A
:1036400085420BD0BA48854208D0BA48854205D099
:10365000B948854202D0B948854200D103E0B12182
:10366000B7A003F080FAE078A0B1E078042811D088
:10367000E07828280ED0E07848280BD0E07814288D
:1036800008D0E078102805D0E0781C2802D0E07837
:10369000182800D103E0B221A9A003F064FA0020A9
:1036A00010B9208800B103E0B321A5A003F05BFAB4
:1036B000E07800F00F09E07810F0100F10D0A0783B
:1036C000012805D0A078022802D0A078032800D1D4
:1036D00003E0BA219AA003F046FAA07840EA09096B
:1036E000208810F0FF0F27D0D5F8008000261FE0BB
:1036F000012000FA06F7208800EA070ABA4516D129
:10370000B7000F2000FA07FB28EA0B0809FA07F0B8
:1037100040EA0808E078282803D10120B040686119
:1037200005E0E078482802D10120B0402861761CED
:10373000082EDDD3C5F800802088FF282BDDD5F8C2
:103740000480002623E006F10800012101FA00F7B9
:10375000208800EA070ABA4518D1B7000F2000FAFE
:1037600007FB28EA0B0809FA07F040EA0808E078A6
:10377000282803D106F1080081406961E0784828D3
:1037800004D106F10800012181402961761C082E30
:10379000D9D3C5F80480BDE8F09F4FF6FF710180D2
:1037A000022181700421C170704770B505460C4636
:1037B00000265C48854211D05B4885420ED05B48AC
:1037C00085420BD05A48854208D05A48854205D0D8
:1037D0005948854202D05948854200D104E040F260
:1037E0001D1157A003F0BFF9012C25D0022C23D0C6
:1037F000042C21D0082C1FD0102C1DD0202C1BD025
:10380000402C19D0802C17D0B4F5807F14D0B4F59B
:10381000007F11D0B4F5806F0ED0B4F5006F0BD0DF
:10382000B4F5805F08D0B4F5005F05D0B4F5804FE3
:1038300002D0B4F5004F00D104E04FF48F7140A0E6
:1038400003F091F9A868204201D0012600E000268B
:10385000304670BD10B504463248844211D032481B
:1038600084420ED0314884420BD03148844208D083
:103870003048844205D03048844202D02F488442E8
:1038800000D104E040F233112DA003F06CF9A068E0
:1038900080B210BD70B505460C4600262148854211
:1038A00011D0214885420ED0204885420BD02048B7
:1038B000854208D01F48854205D01F48854202D066
:1038C0001E48854200D104E040F243111CA003F0E1
:1038D0004AF9012C25D0022C23D0042C21D0082C0D
:1038E0001FD0102C1DD0202C1BD0402C19D0802C88
:1038F00017D0B4F5807F14D0B4F5007F11D0B4F5A3
:10390000806F0ED0B4F5006F0BD0B4F5805F08D097
:10391000B4F5005F05D0B4F5804F02D0B4F5004F88
:1039200028D12DE000080140000C014000100140AA
:103930000014014000180140001C0140002001401B
:103940002E2E5C53544D3332463130785F537464BD
:103950005065726970685F4472697665725C7372F3
:10396000635C73746D3332663130785F6770696F92
:103970002E6300004FF4A271AFF23C0003F0F3F8A5
:10398000E868204201D0012600E00026304670BDE4
:1039900010B50446FF48844211D0FF4884420ED03F
:1039A000FE4884420BD0FE48844208D0FD48844241
:1039B00005D0FD48844202D0FC48844200D105E095
:1039C00040F25911AFF2880003F0CDF8E06880B200
:1039D00010BD70B504460D46EE48844211D0EE4845
:1039E00084420ED0ED4884420BD0ED48844208D08A
:1039F000EC48844205D0EC48844202D0EB48844233
:103A000000D105E04FF4B471AFF2CC0003F0ABF895
:103A1000002008B905B105E040F26911AFF2E000FD
:103A200003F0A1F8256170BD70B504460D46D94874
:103A3000844211D0D84884420ED0D84884420BD05A
:103A4000D748844208D0D748844205D0D64884421B
:103A500002D0D648844200D105E04FF4BC71AFF2E9
:103A6000201003F080F8002008B905B105E040F20D
:103A70007911AFF2341003F076F8656170BD70B55E
:103A800005460C461646C348854211D0C2488542B9
:103A90000ED0C24885420BD0C148854208D0C148EB
:103AA000854205D0C048854202D0C048854200D139
:103AB00005E04FF4C671AFF2781003F054F8012C12
:103AC00025D0022C23D0042C21D0082C1FD0102C60
:103AD0001DD0202C1BD0402C19D0802C17D0B4F531
:103AE000807F14D0B4F5007F11D0B4F5806F0ED074
:103AF000B4F5006F0BD0B4F5805F08D0B4F5005F6B
:103B000005D0B4F5804F02D0B4F5004F00D105E0E8
:103B100040F28D11AFF2D81003F025F80EB1012E4E
:103B200000D105E04FF4C771AFF2EC1003F01BF8C1
:103B30000EB12C6100E06C6170BD70B504460D469D
:103B40009448844211D0944884420ED093488442D1
:103B50000BD09348844208D09248844205D09248C2
:103B6000844202D09148844200D105E040F2A31182
:103B7000AFF2342002F0F7FFE56070BD70B5044687
:103B80000D464FF480368348844211D082488442E7
:103B90000ED0824884420BD08148844208D08148AC
:103BA000844205D08048844202D08048844200D1BB
:103BB00005E04FF4DA71AFF2782002F0D4FF002074
:103BC00008B905B105E040F2B511AFF28C2002F062
:103BD000CAFF2E43A661A561A661A669A66970BD4C
:103BE00070B505460C4600263DB1012D05D0022DCD
:103BF00003D0032D01D0042D00D105E040F2D111F6
:103C0000AFF2C42002F0AFFFECB1012C1BD0022CAC
:103C100019D0032C17D0042C15D0052C13D0062C4A
:103C200011D0072C0FD0082C0DD0092C0BD00A2C4A
:103C300009D00B2C07D00C2C05D00D2C03D00E2C4A
:103C400001D00F2C00D105E04FF4E971AFF2103034
:103C500002F089FF564806684FF68070064046EA33
:103C6000051626435248066070BD10B504460CB1D7
:103C7000012C00D105E040F2E511AFF23C3002F03A
:103C800072FF4C48C46110BD2DE9F04704460E4652
:103C90000027B8460025A946012C7AD0022C78D0FE
:103CA000042C76D0082C74D0A4F5A010103870D055
:103CB00020386ED0A4F5B01040386AD0803868D073
:103CC0003D48844265D03D48844262D03C488442AD
:103CD0005FD03C4884425CD03B48844259D0B4F524
:103CE000805F56D0B4F5EA1F53D0B4F5EB1F50D027
:103CF000B4F5004F4DD0354884424AD0A4F50010A9
:103D0000801E7DD0801E7BD0001F79D0083877D0F0
:103D1000B4F1201F74D0303872D02D4884426FD057
:103D20002C4884426CD02C48844269D02B48844271
:103D300066D02B48844263D0B4F5011F60D0294877
:103D400084425DD0401C84425AD0801C844257D0AB
:103D5000001D844254D023480F30844250D0214863
:103D60001F3084424CD01F483F30844248D01D4809
:103D70007F30844244D01B48FF30844240D01A48F0
:103D800084423DD0194884423AD01948844237D001
:103D900030E035E000080140000C01400010014017
:103DA0000014014000180140001C014000200140A7
:103DB000000001400000204200011800000218002D
:103DC0000003180000081A00000C1A00010020006F
:103DD000000130000002300000043000001020001C
:103DE000002020000100008000020080000400800C
:103DF000000800806148844202D06148844200D1BA
:103E000005E040F22721AFF2C84002F0ACFE0EB14F
:103E1000012E00D105E04FF40A71AFF2DC4002F050
:103E2000A2FE04F00040B0F1004F02D15548C56930
:103E300001E054484568C4F30349A7B204F44010B4
:103E4000B0F5401F08D125F070654E48406820F05D
:103E500070604C49486013E004F48010B0F5801F96
:103E600007D1032000FA09F825EA080545F0706536
:103E700006E0600D000107FA00F0854345F070652B
:103E800026B1600D010107FA01F0054304F000407E
:103E9000B0F1004F02D13B48C56101E039484560AF
:103EA000BDE8F08770B505460C4600265DB1012DD2
:103EB00009D0022D07D0032D05D0042D03D0052DE8
:103EC00001D0062D00D105E040F26221AFF2905002
:103ED00002F049FEECB1012C1BD0022C19D0032CAE
:103EE00017D0042C15D0052C13D0062C11D0072C7C
:103EF0000FD0082C0DD0092C0BD00A2C09D00B2C7C
:103F000007D00C2C05D00D2C03D00E2C01D00F2C7B
:103F100000D105E040F26321AFF2DC5002F023FE55
:103F2000A007010F0F2000FA01F616480830A11073
:103F300050F82100B04313490831A21041F8220083
:103F40000846A11050F82100A107090F05FA01F158
:103F500008430C490831A21041F8220070BD10B589
:103F600004460CB1012C00D105E040F27521AFF2FE
:103F7000306002F0F8FD0448046010BD00100080BD
:103F80000020008000000140DC00204210B5044603
:103F9000FA48844202D0FA48844200D103E0A521C5
:103FA000F8A002F0E0FDF548844209D1012148055E
:103FB00001F055FC00214FF4001001F050FC08E026
:103FC0000121880501F04BFC00214FF4800001F035
:103FD00046FC10BD2DE9F04385B005460C46002691
:103FE000B1460427DFF8D083E448854202D0E44894
:103FF000854200D103E0C621E2A002F0B4FD2068B2
:1040000020B1EE492068884200D803E0C721DDA036
:1040100002F0A9FDA08828B1A088022802D0A088BB
:104020000A2800D103E0C821D6A002F09CFDE08858
:10403000B0F5804F04D0E088A0F53F41FF3900D1B2
:1040400003E0C921CFA002F08EFD2089B0F5806F7A
:1040500000DA03E0CA21CBA002F085FD6089B0F54B
:10406000806F01D0608900B903E0CB21C5A002F0C8
:104070007AFDA089B0F5804F03D0A089B0F5404FFC
:1040800000D103E0CC21BFA002F06DFDAE884FF659
:10409000C0710E40684601F056FADDF80880C84845
:1040A000B8FBF0F01FFA80F946EA0906AE802888CE
:1040B0004FF6FE71084028800026C24920688842D9
:1040C0000CD820684000B8FBF0F087B2042F00DA6B
:1040D00004273E4309F10100288427E0E088A0F589
:1040E0003F41FF3906D1206800EB4000B8FBF0F0FB
:1040F00087B209E0206800EBC00101EB0010B8FBBB
:10410000F0F087B247F480473805000D01D147F041
:10411000010747F4004006434FF4967009FB00F096
:104120004FF47A7190FBF1F0401C2884AE8328880C
:1041300040F0010028802E884FF6F5310E40A0880F
:104140006189084306432E80A0892189084328817C
:1041500005B0BDE8F08341F2883101600021818023
:104160004BF6FF71C1800021018141814FF48041F4
:104170008181704770B504460D468048844202D064
:104180007F48844200D104E040F245117DA002F056
:10419000EAFC0DB1012D00D104E04FF4A37179A028
:1041A00002F0E1FC25B1208840F00100208004E00D
:1041B00020884FF6FE710840208070BD70B504461F
:1041C0000D466E48844202D06D48844200D104E01E
:1041D00040F25D116BA002F0C6FC0DB1012D00D1C3
:1041E00004E04FF4AF7167A002F0BDFC25B1A088D8
:1041F00040F40060A08004E0A0884FF2FF71084006
:10420000A08070BD70B504460D465C48844202D063
:104210005B48844200D104E040F2751159A002F0DD
:10422000A2FC0DB1012D00D104E04FF4BB7155A0EB
:1042300002F099FC25B1A08840F48050A08004E0F1
:10424000A0884EF6FF710840A08070BD70B504468E
:104250000D464A48844202D04948844200D104E0D5
:1042600040F28D1147A002F07EFC0DB1012D00D16E
:1042700004E04FF4C77143A002F075FC25B120881B
:1042800040F48070208004E020884FF6FF610840F1
:10429000208070BD70B504460D463848844202D077
:1042A0003748844200D104E040F2A51135A002F065
:1042B0005AFC0DB1012D00D104E04FF4D37131A0AF
:1042C00002F051FC25B1208840F40070208004E009
:1042D00020884FF6FF510840208070BD70B504461D
:1042E0000D462648844202D02548844200D104E08D
:1042F00040F2BD1123A002F036FC0DB1012D00D11A
:1043000004E04FF4DF711FA002F02DFC25B12088DE
:1043100040F48060208004E020884FF6FF310840A0
:10432000208070BD70B504460E46002513488442B7
:1043300002D01348844200D104E04FF4EB7111A085
:1043400002F011FCA5894FF601710D4006F0FE0048
:104350000543A58170BD70B504460D4607488442EB
:1043600002D00748844200D104E040F2EF1105A0DA
:1043700002F0F9FB0DB1012D26D12BE000540040D5
:10438000005800402E2E5C53544D33324631307865
:104390005F5374645065726970685F4472697665D2
:1043A000725C7372635C73746D3332663130785F44
:1043B0006932632E6300000000127A00801A060042
:1043C00040420F00A08601004FF4F871AFF24C009C
:1043D00002F0C9FB25B1A08940F00100A08104E0F2
:1043E000A0894FF6FE710840A08170BD70B50446EB
:1043F0000D46F848844202D0F748844200D105E0D7
:1044000040F20721AFF2840002F0ADFB0DB1012DA7
:1044100000D105E04FF40271AFF2980002F0A3FB67
:1044200025B1208840F04000208004E020884FF62D
:10443000BF710840208070BD70B504460D46164619
:10444000E448844202D0E448844200D105E04FF4BD
:104450000971AFF2D00002F086FB0EB1012E00D13F
:1044600005E040F22521AFF2E40002F07CFB4FF6BC
:10447000FF00054201D105B105E040F22621AFF26F
:10448000FC0002F070FB1EB1A0882843A08004E06D
:10449000A088E94389B20840A08070BD70B5044689
:1044A0000D46CC48844202D0CB48844200D105E07E
:1044B00040F23D21AFF2341002F055FB258270BD71
:1044C00010B50446C348844202D0C348844200D198
:1044D00005E040F24A21AFF2541002F044FB208A7A
:1044E000C0B210BD70B504460D461646B9488442A8
:1044F00002D0B948844200D105E04FF41771AFF201
:104500007C1002F030FB0EB1012E00D105E040F22C
:104510005D21AFF2901002F026FB16B145F00105C7
:1045200002E04FF6FE710D40258270BD70B5054664
:104530000C460026A748854202D0A748854200D1F4
:1045400005E040F28121AFF2C41002F00CFB7CB117
:10455000042C0DD0082C0BD00C2C09D0102C07D01B
:10456000142C05D0182C03D01C2C01D0202C00D1E9
:1045700005E040F28221AFF2F41002F0F4FA2E4688
:104580002644308870BD70B504460D46914884427B
:1045900002D09148844200D105E040F29521AFF26B
:1045A0001C2002F0E0FA0DB1012D00D105E040F22F
:1045B0009621AFF2302002F0D6FA25B1208840F4DF
:1045C0000040208003E02088C0F30E00208070BDF2
:1045D00070B504460D467F48844202D07E4884422E
:1045E00000D105E040F2BB21AFF2682002F0BBFA37
:1045F000B5F5006F03D0A5F57740FF3800D105E091
:104600004FF42F71AFF2842002F0ADFAB5F5006FD0
:1046100004D1208840F40060208004E020884FF21C
:10462000FF710840208070BD70B504460D46694892
:10463000844202D06848844200D105E040F2D7218C
:10464000AFF2C02002F08FFAB5F5005F03D0A5F5F8
:104650005F40FF3800D105E04FF43671AFF2DC2047
:1046600002F081FAB5F5005F04D1208840F40050D3
:10467000208004E020884DF6FF710840208070BD46
:1046800070B504460D465348844202D052488442D5
:1046900000D105E040F2EF21AFF2183002F063FAEA
:1046A0000DB1012D00D105E04FF43C71AFF22C307B
:1046B00002F059FA25B1208840F48050208004E0AF
:1046C00020884EF6FF710840208070BD70B504460A
:1046D0000D464048844202D03F48844200D105E064
:1046E00040F20E31AFF2643002F03DFAB5F5006FE2
:1046F00003D0A5F57740FF3800D105E040F20F3137
:10470000AFF2803002F02FFAB5F5006F04D12088A7
:1047100040F40060208004E020884FF2FF710840E0
:10472000208070BD70B504460D462A48844202D0F0
:104730002948844200D105E040F22631AFF2BC3076
:1047400002F011FA0DB1012D00D105E040F2273140
:10475000AFF2D03002F007FA25B1208840F02000F7
:10476000208004E020884FF6DF710840208070BD73
:1047700010B504461748844202D01748844200D13D
:1047800005E04FF44F71AFF2044002F0ECF9208BDA
:10479000001210BD70B504460D460E48844202D08A
:1047A0000D48844200D105E040F24B31AFF22C407D
:1047B00002F0D9F90DB1012D00D105E04FF453718C
:1047C000AFF2404002F0CFF945B1208840F0100030
:1047D000208008E0005400400058004020884FF638
:1047E000EF710840208070BD70B504460D46F0485A
:1047F000844202D0EF48844200D105E040F26331A8
:10480000AFF2804002F0AFF90DB1012D00D105E00B
:104810004FF45971AFF2944002F0A5F925B9208800
:1048200040F08000208004E020884FF67F7108402F
:10483000208070BD70B504460D46DD48844202D02C
:10484000DC48844200D105E040F27D31AFF2CC403B
:1048500002F089F9B5F5804F03D0A5F53F40FF3848
:1048600000D105E040F27E31AFF2E84002F07BF982
:10487000B5F5804F05D0A08B4BF6FF710840A083A3
:1048800003E0A08B40F48040A08370BD2DE9F04789
:1048900005460C460027B9460026B046C448854266
:1048A00002D0C448854200D105E040F20D41AFF28C
:1048B0002C5002F058F9A4F5C02082383CD0B4F155
:1048C000021F39D0A4F50600803835D0B4F5020FA8
:1048D00032D0B4F5901F2FD0A4F5003040382BD043
:1048E000B0F5000028D010F5E00025D0A4F5C020D8
:1048F000843821D0B0F500001ED010F5E0001BD0A8
:10490000102C19D0AC48844216D0A4F5E02082388F
:1049100012D0A4F54030801E0ED03E380CD0A4F545
:10492000E020843808D0001D06D0A4F540300838B7
:1049300002D0B4F5806F00D105E040F20E41AFF235
:10494000BC5002F010F9B5F814902E8B360449EAE9
:10495000060020F07F4707EA0400A04202D14FF092
:10496000010801E04FF000084046BDE8F0872DE95E
:10497000F04104460026002700258D48844202D0DD
:104980008C48844200D105E040F23C41AFF20C601B
:1049900002F0E9F8A78A258B2D0447EA050020F0EC
:1049A0007F463046BDE8F0812DE9F04105460C46D2
:1049B0000027B84600267E48854202D07D488542C1
:1049C00000D105E040F27341AFF2486002F0CBF84D
:1049D000B4F5000F38D0B4F5800F35D0B4F5001F12
:1049E00032D0B4F5801F2FD0B4F5802F2CD0B4F581
:1049F000003F29D0B4F5803F26D07048844223D0B0
:104A00006F48844220D0B4F1102F1DD06D488442ED
:104A10001AD06D48844217D06C48844214D06C4838
:104A2000844211D0A4F1805080380DD040300BD09A
:104A3000303009D0083007D0001D05D0801C03D0CD
:104A40006348FF38844200D105E040F27441AFF280
:104A5000CC6002F088F82E464FEA147824F07F44A8
:104A6000B8F1000F01D0143601E0240C183630687C
:104A7000204201D0012700E000273846BDE8F08140
:104A800070B504460D4600264948844202D0494884
:104A9000844200D105E04FF49861AFF2187002F043
:104AA00062F842F2FF00054201D105B105E040F293
:104AB000C141AFF2307002F056F825F07F46F04366
:104AC000A08270BD2DE9F04105460C460026002766
:104AD0003748854202D03748854200D105E040F290
:104AE000E441AFF2607002F03EF83A48844224D0CC
:104AF0003948844221D0394884421ED03848844203
:104B00001BD03848844218D03748844215D0B4F1BD
:104B1000012F12D0A4F1C06080380ED040300CD0EC
:104B2000A4F10070103808D0083006D0001D04D061
:104B3000801C02D02D48844200D105E040F2E541BE
:104B4000AFF2C07002F00FF8A88804F0E06100EA4C
:104B5000114724F07F44A88A204202D00FB10126D9
:104B600000E000263046BDE8F08170B504460D46F1
:104B700000260F48844202D00E48844200D105E04E
:104B800040F21F51AFF6040001F0EDFF42F2FF00CA
:104B9000054201D105B105E04FF4A461AFF61C0058
:104BA00001F0E1FF25F07F46F043A08270BD0000D8
:104BB0000054004000580040010003000080001035
:104BC0000040001000080010000400100002001057
:104BD00000010010008000010040000100100001F1
:104BE00000080001000400010002000101000002B1
:104BF00010B50446A4F5AA40553800D004B903E026
:104C00005E2124A001F0AFFF2F48046010BD10B555
:104C100004465CB1012C09D0022C07D0032C05D02E
:104C2000042C03D0052C01D0062C00D103E0722106
:104C300018A001F098FF2448446010BD10B5044648
:104C4000B4F5805F00DA03E07F2112A001F08BFF52
:104C50001D48846010BD4AF6AA201B4908607047B1
:104C60004CF6CC4018490860704770B504460025E2
:104C7000012C01D0022C00D103E0A42105A001F0F9
:104C800072FF1148C068204201D0012500E00025D4
:104C9000284670BD2E2E5C53544D33324631307849
:104CA0005F5374645065726970685F4472697665B9
:104CB000725C7372635C73746D3332663130785F2B
:104CC000697764672E6300000030004010B5012151
:104CD000080700F0C4FD00214FF0805000F0BFFD38
:104CE00010BD10B504460CB1012C00D103E07E21AB
:104CF00058A001F038FF6448046210BD10B50446A6
:104D00000CB1012C00D103E08B2152A001F02BFF4C
:104D10005D48046110BD70B5044600256CB1202CBF
:104D20000BD0402C09D0602C07D0802C05D0A02CB3
:104D300003D0C02C01D0E02C00D103E0A12145A07C
:104D400001F011FF5148056825F0E0052543056095
:104D500070BD10B504460CB1012C00D103E0B421A4
:104D60003CA001F000FF4A48046010BD70B5044645
:104D70000D4600260CB1012C00D103E0C82135A05E
:104D800001F0F1FE012D01D0022D00D103E0C92177
:104D900030A001F0E8FE3D48066826F003062643F1
:104DA00006603C48006840F004004FF0E021C1F884
:104DB000100D012D01D130BF00E020BF3548006843
:104DC00020F004004FF0E021C1F8100D70BD2F4815
:104DD000006840F004002D4908600846006840F073
:104DE000020008602B48006840F004004FF0E0210A
:104DF000C1F8100D00BF00BF30BF704770B504464A
:104E00000025012C03D0022C01D0042C00D104E099
:104E10004FF484710FA001F0A6FE1C4840682042A8
:104E200001D0012500E00025284670BD10B50446DC
:104E3000012C01D0022C00D104E040F2211105A088
:104E400001F091FE1148006840EA84000F490860B3
:104E500010BD00002E2E5C53544D33324631307855
:104E60005F5374645065726970685F4472697665F7
:104E7000725C7372635C73746D3332663130785F69
:104E80007077722E6300000000000E420070004038
:104E9000A0000E4210ED00E0F748006840F001006D
:104EA000F549086008464068F4490840F2494860FE
:104EB00008460068F2490840EF4908600846006863
:104EC00020F4802008600846406820F4FE00486016
:104ED0000846006820F0A05008604FF47F0088600A
:104EE0000020C862704710B504462CB1B4F5803F6D
:104EF00002D0B4F5802F00D104E04FF48871E1A016
:104F000001F031FEDC48006820F48030DA490860A6
:104F10000846006820F480200860B4F5803F03D084
:104F2000B4F5802F0ED106E0D348006840F48030FD
:104F3000D149086007E0D048006840F4A020CE497D
:104F4000086000E000BF00BF10BD2DE9F04104463D
:104F5000002500260027212C17D0312C15D0392C04
:104F600013D0412C11D03B2C0FD03D2C0DD0612CF7
:104F70000BD07A2C09D07B2C07D07C2C05D07D2C33
:104F800003D07E2C01D07F2C00D104E040F23351BD
:104F9000BCA001F0E8FD6511012D02D1B6480668FC
:104FA00006E0022D02D1B448066A01E0B248466A22
:104FB00004F01F050120A840304201D0012700E085
:104FC00000273846BDE8F08170B500240025002692
:104FD00000BF3120FFF7B9FF0646641CB4F5A06F8F
:104FE00001D0002EF5D03120FFF7AFFF08B1012529
:104FF00000E00025284670BD70B5044600251F2C32
:1050000000DC04E040F251119EA001F0ACFD9A4892
:10501000056825F0F80545EAC405056070BD10B5C2
:1050200004460CB1012C00D104E04FF4B27195A0FC
:1050300001F099FDA048046010BD70B505460C460E
:10504000002615B1B5F5803F00D104E04FF4BF71E3
:105050008CA001F088FDB4F5002F11D0B4F5402FDD
:105060000ED0B4F5801F0BD0B4F5A01F08D0B4F556
:10507000C01F05D0B4F5E01F02D0B4F5501F00D119
:1050800004E040F27F117FA001F06DFD7A48466890
:1050900026F4741645EA040006437748466070BD5E
:1050A00010B504460CB1012C00D104E040F293117C
:1050B00074A001F058FD8048046610BD70B5054627
:1050C0000C46002615B1B5F5803F00D104E04FF441
:1050D000D7716CA001F047FDECB1012C1BD0022C64
:1050E00019D0032C17D0042C15D0052C13D0062C66
:1050F00011D0072C0FD0082C0DD0092C0BD00A2C66
:1051000009D00B2C07D00C2C05D00D2C03D00E2C65
:1051100001D00F2C00D104E040F2AF1159A001F0F2
:1051200022FD5548C66A6548064045EA0400064324
:105130005148C66270BD70B504460025ECB1102C14
:105140001BD0202C19D0302C17D0402C15D0502C2F
:1051500013D0602C11D0702C0FD0802C0DD0902C3F
:105160000BD0A02C09D0B02C07D0C02C05D0D02C4F
:1051700003D0E02C01D0F02C00D104E04FF4E57115
:1051800040A001F0F0FC3C48C56A25F0F00525433D
:10519000C56270BD70B504460025B4F5C06F17D068
:1051A000B4F5E06F14D0B4F5006F11D0B4F5106F02
:1051B0000ED0B4F5206F0BD0B4F5306F08D0B4F535
:1051C000406F05D0B4F5606F02D0B4F5706F00D1B8
:1051D00004E040F2E3112BA001F0C5FC2648C56AAB
:1051E00025F470652543C56270BD10B504460CB149
:1051F000012C00D104E040F2FB1122A001F0B3FC2D
:105200002D48846610BD70B504460025B4F5C04F26
:1052100017D0B4F5E04F14D0B4F5004F11D0B4F569
:10522000104F0ED0B4F5204F0BD0B4F5304F08D04E
:10523000B4F5404F05D0B4F5604F02D0B4F5704FCF
:1052400000D104E040F20F210EA001F08CFC0A48CE
:10525000C56A25F470452543C56270BD10B5044686
:105260000CB1012C00D104E040F2252105A001F091
:105270007AFC1148046710BD001002400000FFF0E6
:10528000FFFFF6FE2E2E5C53544D333246313078FC
:105290005F5374645065726970685F4472697665C3
:1052A000725C7372635C73746D3332663130785F35
:1052B0007263632E6300000000004242F0FFFEFFB5
:1052C00070B5044600251CB1012C01D0022C00D180
:1052D00005E040F23721AFF2540001F044FCF748FA
:1052E000456825F003052543456070BDF3484068D7
:1052F00000F00C00704770B5044600257CB1802C8E
:105300000DD0902C0BD0A02C09D0B02C07D0C02CE5
:1053100005D0D02C03D0E02C01D0F02C00D105E03A
:1053200040F26321AFF2A40001F01DFCE3484568A0
:1053300025F0F0052543456070BD70B50446002595
:105340005CB1B4F5806F08D0B4F5A06F05D0B4F5AA
:10535000C06F02D0B4F5E06F00D105E040F27D21CE
:10536000AFF2E00001F0FFFBD448456825F4E065AA
:105370002543456070BD70B5044600255CB1B4F5A9
:10538000806F08D0B4F5A06F05D0B4F5C06F02D01F
:10539000B4F5E06F00D105E040F29721AFF21C10A8
:1053A00001F0E1FBC548456825F4605545EAC405B0
:1053B000456070BD70B504460D4614F0800F01D1F4
:1053C00004B105E040F2BE21AFF2481001F0CBFB82
:1053D0000DB1012D00D105E040F2BF21AFF25C100C
:1053E00001F0C1FB2DB1B548407A2043B349487262
:1053F00006E0B248407AE143C9B20840AF4948727A
:1054000070BD10B504460CB1012C00D105E04FF47D
:105410003B71AFF2901001F0A6FBA948046010BDEB
:1054200070B50446002544B1B4F5804F05D0B4F5FD
:10543000004F02D0B4F5404F00D105E040F20131F9
:10544000AFF2C01001F08FFB9C48456825F4404541
:105450002543456070BD10B504460CB1012C00D148
:1054600005E040F21A31AFF2E41001F07CFB954800
:10547000046010BD10B504460CB1012C00D105E04C
:1054800040F22D31AFF2042001F06DFB8E48046034
:1054900010BD10B504461CB1012C01D0042C00D164
:1054A00005E040F23F31AFF2242001F05CFB002028
:1054B00086490870814981F82000012C02D0042C13
:1054C00008D103E001208149087004E005207F49EC
:1054D000087000E000BF00BF10BD10B504460CB15D
:1054E000012C00D105E04FF45871AFF2682001F0B3
:1054F0003AFB7748046010BD10B50446B4F5807FD0
:1055000005D0B4F5007F02D0B4F5407F00D105E0AE
:1055100040F27131AFF2942001F025FB6748006A38
:1055200020436649086210BD10B504460CB1012C39
:1055300000D105E040F27F31AFF2B82001F013FB5B
:105540006448046010BD2DE9F041002100220025CF
:1055500000230026002400278C46DFF86081D8F85D
:10556000048008F00C0121B1042907D0082959D181
:1055700009E0DFF86481C0F8008058E0DFF85C8162
:10558000C0F8008053E0DFF83481D8F8048008F4D4
:105590007012DFF82881D8F8048008F48035920C66
:1055A0000D2A01D0921C00E0062235B9DFF83081C7
:1055B00002FB08F8C0F8008033E0DFF80081D8F87B
:1055C0002C8008F48036DFF8F480D8F82C8008F0BE
:1055D0000F0808F1010446B9DFF80081B8FBF4F8C0
:1055E00008FB02F8C0F800801BE0DFF8D080D8F894
:1055F0002C80C8F3031808F10107DFF8C080D8F841
:105600002C80C8F3032808F1020CDFF8D080B8FB27
:10561000F7F808FB0CF8B8FBF4F808FB02F8C0F840
:10562000008004E0DFF8B080C0F8008000BF00BF59
:10563000DFF88880D8F8048008F0F0010909DFF865
:10564000A48018F80130D0F8008028FA03F8C0F8D8
:105650000480DFF86880D8F8048008F4E061090A63
:10566000DFF8808018F80130D0F8048028FA03F8B9
:10567000C0F80880DFF84480D8F8048008F460514E
:10568000C90ADFF8608018F80130D0F8048028FAE1
:1056900003F8C0F80C80DFF82480D8F8048008F400
:1056A0004041890BDFF8408018F80130D0F80C80B9
:1056B000B8FBF3F8C0F81080BDE8F081001002409C
:1056C000D8004242C4054242C8054242201002406E
:1056D000800442423C04424200127A0040787D013C
:1056E00000093D00000000201000002070B50446B5
:1056F0000D46A648044201D104B105E040F22A411A
:10570000AFF2804001F02FFA0DB1012D00D105E07C
:1057100040F22B41AFF2944001F025FA2DB19C48A4
:10572000406920439A49486104E099484069A04390
:105730009749486170BD70B504460D4695480442CE
:1057400001D104B105E040F24941AFF2C84001F097
:105750000AFA0DB1012D00D105E040F24A41AFF245
:10576000DC4001F000FA2DB1894880692043884966
:10577000886104E086488069A0438549886170BDDE
:1057800070B504460D468448044201D104B105E0D9
:105790004FF48D61AFF2145001F0E5F90DB1012D18
:1057A00000D105E040F26941AFF2285001F0DBF989
:1057B0002DB17748C06920437549C86104E0744839
:1057C000C069A0437249C86170BD70B504460D46FA
:1057D00034F4A04001D104B105E040F28341AFF2BE
:1057E0005C5001F0C0F90DB1012D00D105E040F28F
:1057F0008441AFF2705001F0B6F92DB16448806A6F
:1058000020436349886204E06148806AA04360499C
:10581000886270BD70B504460D465E48044201D1F1
:1058200004B105E040F2A341AFF2A85001F09BF9AA
:105830000DB1012D00D105E040F2A441AFF2BC5002
:1058400001F091F92DB15248C06820435049C86019
:1058500004E04F48C068A0434D49C86070BD70B5B2
:1058600004460D464C48044201D104B105E040F223
:10587000C241AFF2F05001F076F90DB1012D00D127
:1058800005E040F2C341AFF2046001F06CF92DB1C4
:105890003F48006920433E49086104E03C480069F4
:1058A000A0433B49086170BD10B504460CB1012C02
:1058B00000D105E040F2D741AFF2386001F053F972
:1058C0003648046010BD10B504460CB1012C00D15F
:1058D00005E040F2E441AFF2546001F044F9304891
:1058E000C46410BD10B504467CB1052C0DD0042C49
:1058F0000BD0062C09D0072C07D0082C05D0092C7A
:1059000003D00A2C01D00B2C00D105E040F2045149
:10591000AFF2906001F027F91D48C47110BD1C481A
:10592000406A40F080701A494862704770B504467A
:105930000025012C0DD0022C0BD0042C09D0082CF2
:1059400007D0102C05D0802C03D0202C01D0402C67
:1059500000D105E040F27D51AFF2D86001F003F9CB
:105960000B488068204201D0012500E00025284630
:1059700070BD10B5044604B105E040F2AA51AFF283
:10598000FC6001F0F0F80248847210BDA82FFEFF01
:10599000001002400200C0FF003601814004424274
:1059A0000000424270B504460D464FF6F8700442BE
:1059B00001D104B103E05C217BA001F0D4F80DB16A
:1059C000012D00D103E05D2177A001F0CCF83DB1BD
:1059D0008248008840EA04008149A1F8000809E0F3
:1059E0007E4800886FEA040189B200EA01007C4920
:1059F000A1F8000870BD7B48008840F0100078498D
:105A0000A1F804087047774800884FF6EF7100EA64
:105A100001007349A1F80408704700217248018809
:105A20006F48B0F8180841EA0040704700B50246D8
:105A3000FFF7E1FF100C6D4908806949A1F81C28A7
:105A4000FFF7E1FF00BD10B50446B4F5801F00D29A
:105A500003E0A22154A001F086F8FFF7CCFFC4F3C5
:105A60000340634908805E49A1F80C48FFF7CBFF6B
:105A700010BD00B50246FFF7BEFF100C5D4908805F
:105A80005749A1F82428FFF7BEFF00BD00205A495E
:105A900009884FEA01714FEA11305149B1F81418E1
:105AA00041EA0000704700BF4E48008810F0200F08
:105AB000FAD070474B4800884FF6F77100EA0100B2
:105AC0004749A1F8040800BF4648008810F0080FB5
:105AD000FAD0704770B504460025202C07D0082C5A
